:0A0000000EC0FECFFDCFFCCFFBCFFA
:10000A00FACFF9CFF8CFF7CFF6CF000002000400FD
:10001A0014000000F894EE27ECBBE5BFF8E1A4B7A2
:10002A00A77FA4BFF1BDE1BD8DE0A2E0ED938A9563
:10003A00E9F780E4A0E6ED938A95E9F7E6E1F0E0D6
:10004A00C8953196802DC8953196902D0097B9F0B4
:10005A00C8953196A02DC8953196B02DC895319680
:10006A00102CC89531966E2F7F2FF02DE12DC89553
:10007A0031960D920197D9F7E62FF72FE1CFEFE9E5
:10008A00EDBFC0E71AC0E0E5F6E44E165F0630F4AD
:10009A00E42DF52DE055FB4F4E2E5F2E0895E0EB33
:1000AA00F4E04E2E5F2EC398C49AC29A089544244F
:1000BA005524C39AC498C298089505E04424552447
:1000CA00E0E8E6BDE0E0E6BDE3E3E8BBECE3E7BB7E
:1000DA00E0E0EFBDE3BFE2BFE6BFE9BDEBBFE5BFCE
:1000EA00E9BFE0E8E8B9E0E0E3B9E4BBE6B945D046
:1000FA0000240414050440F4E42DF52D31974E2E06
:10010A005F2E40D009F4D3DF3DD029F0E0EBF4E0D4
:10011A004E165F0608F00BC0003039F4C29B02C0CD
:10012A00C29801C0C29A05E001C0015005C02AD098
:10013A0011F4C29801C0C29AB09905C0B8DFB0994B
:10014A0002C01BD0FCCFB19916C01CD031F4A7DF76
:10015A00B19902C012D0FCCF0EC095DFB19904C08C
:10016A00EAE0F0E012D0FACF13D0C29AE6E9F0E062
:10017A000CD00ED0C29ABBCFFFCFE2E3F0E0FA93E5
:10018A00EA930AC0042C05280895FA93EA9304C056
:10019A00C298E6E9F0E0F9CFE991F991309639F0A1
:1001AA008AEF90E00197F1F7A8953197C9F708957A
:00000001FF
