:0A00000009C0FECFFDCFFCCFFBCFFF
:10000A00FACFF9CFF8CFF7CFF6CFF894EE27ECBBBB
:10001A00E5BFF8E1A4B7A77FA4BFF1BDE1BD8DE0BC
:10002A00A2E0ED938A95E9F780E4A0E6ED938A953C
:10003A00E9F7EFE9EDBFC0E73CC00A9300E0A5D0BD
:10004A00EF3038F4A2D0EF5F0E2FE02FA0E0B0E03F
:10005A0003C0A0E0B0E0E1E011D100E096D00E17B5
:10006A0070F4C29AE6E9F0E094D0B49B08C0C29852
:10007A00ECE2F1E08ED0B49B02C00F5FEFCFC298E2
:10008A000991089582D0F0E0A2E9B4E0CFD084D0FB
:10009A00B8D0AED0E0937000F09371006093720014
:1000AA0070937300C39AC29A08957FD0C398C29876
:1000BA00089505E07AD0E0E8E6BDE0E0E6BDE2E3D7
:1000CA00E8BBECE2E7BBE0E0EFBDE3BFE2BFE6BFBF
:1000DA00E9BDEBBFE5BFE9BFE0E8E8B9E0E0E3B9B5
:1000EA00E4BBE6B96CD058D0DDD048F4A0E7B1D073
:1000FA00319760407040B2D065D009F4D6DF62D043
:10010A0049F04AD0A239E4E0BE07E0E08E07E0E019
:10011A009E0708F00BC0003039F4C29B02C0C29897
:10012A0001C0C29A05E001C0015005C04BD011F4CC
:10013A00C29801C0C29AB49902C044D009F00DC055
:10014A00B49902C03CD0FCCFEAE0F0E022D0B499E6
:10015A0002C035D0FCCF33D070DFB09B05C0A5DF1D
:10016A00B09B02C02CD0FCCFB1990DC08BDFB199E6
:10017A0002C025D0FCCFEAE0F0E00BD0B19902C072
:10018A001ED0FCCF1CD0AECFFFCFA0E0B0E06BD02A
:10019A000895FA93EA9320C0A0917000B09171007B
:1001AA0080917200909173000895E0E0E0937000EE
:1001BA00E0937100E0937200E09373000895E2E324
:1001CA00F0E0E7CFE0917000F09171006091720069
:1001DA007091730063D00895E991F991309639F0DE
:1001EA0080E699E00197F1F7A8953197C9F7089544
:1001FA00EA0FFB1F681F791F0895F195E195F040FA
:10020A0008956F2F660F660B762F08950A2E1B2E00
:10021A0081E1AA27BB1B05C010F4A00DB11DB6953C
:10022A00A795F795E7958A95B9F7089504D0EEDF73
:10023A000EF4E3DF0895E894F7FF02C0DEDF689466
:10024A00B7FF06C0A095B095119600F8039400FA7E
:10025A000895ED91FD916D917D9108957E936E9330
:10026A00FE93EE930895E199FECFFF93FFB7F894BA
:10027A00AEBBE09AEDB3FFBFFF910895E19B02C0C8
:10028A00A895FCCF9FB7F894AEBBE09A8DB3E81758
:10029A0019F0EDBBE29AE19A9FBF0895309760404A
:1002AA007040089500240A160B06080609060895E8
:00000001FF
